:100000000C9462000C948A000C948A000C948A0070
:100010000C948A000C948A000C948A000C948A0038
:100020000C948A000C948A000C948A000C948A0028
:100030000C948A000C948A000C948A000C948A0018
:100040000C949E040C948A000C946C040C9446044A
:100050000C948A000C948A000C948A000C948A00F8
:100060000C948A000C948A000000000024002700F1
:100070002A0000000000250028002B0000000008D6
:10008000000201000003040700000000000000005F
:1000900000000000230026002900040404040404D6
:1000A0000404020202020202030303030303010227
:1000B00004081020408001020408102001020408F6
:1000C00010202D0511241FBECFEFD8E0DEBFCDBF1D
:1000D00011E0A0E0B1E0ECE7F0E102C005900D9284
:1000E000A435B107D9F722E0A4E5B1E001C01D9223
:1000F000AA31B207E1F710E0C2E6D0E004C02197D0
:10010000FE010E943108C136D107C9F70E94780567
:100110000C943C080C940000CF92DF92EF92FF9277
:100120000F931F93CF93DF936C017A018B01C0E093
:10013000D0E0CE15DF0589F0D8016D918D01D60193
:10014000ED91FC910190F081E02DC6010995892B7C
:1001500011F47E0102C02196ECCFC701DF91CF914F
:100160001F910F91FF90EF90DF90CF900895FC01C9
:10017000918D828D981761F0828DDF01A80FB11DDE
:100180005D968C91928D9F5F9F73928F90E0089502
:100190008FEF9FEF0895FC01918D828D981731F0BC
:1001A000828DE80FF11D858D90E008958FEF9FEF10
:1001B0000895FC01918D228D892F90E0805C9F4FE6
:1001C000821B91098F739927089585E691E00E941B
:1001D000D90021E0892B09F420E0822F0895FC0149
:1001E000848DDF01A80FB11DA35ABF4F2C91848DC0
:1001F00090E001968F739927848FA689B7892C93F5
:10020000A089B1898C9180648C93938D848D98138F
:1002100006C00288F389E02D80818F7D8083089558
:10022000EF92FF920F931F93CF93DF93EC0181E046
:10023000888F9B8D8C8D981305C0E889F989808102
:1002400085FD24C0F62E0B8D10E00F5F1F4F0F733E
:100250001127E02E8C8DE8120CC00FB607FCFACFE8
:10026000E889F989808185FFF5CFCE010E94EF00F2
:10027000F1CF8B8DFE01E80FF11DE35AFF4FF082A5
:100280000B8FEA89FB898081806207C0EE89FF8934
:100290006083E889F98980818064808381E090E0CF
:1002A000DF91CF911F910F91FF90EF900895CF9321
:1002B000DF93EC01888D8823C9F0EA89FB8980816E
:1002C00085FD05C0A889B9898C9186FD0FC00FB640
:1002D00007FCF5CF808185FFF2CFA889B9898C9181
:1002E00085FFEDCFCE010E94EF00E7CFDF91CF91E8
:1002F000089580E090E0892B29F00E94E5008111AB
:100300000C940000089590E0FC01E458FF4F3491F4
:10031000FC01E255FF4F2491FC01E656FF4FE491AA
:10032000EE2309F43BC0332339F1333091F038F434
:100330003130A9F0323001F584B58F7D12C03730ED
:1003400091F03830A1F03430B9F4809180008F7D85
:1003500003C0809180008F77809380000DC084B5AA
:100360008F7784BD09C08091B0008F7703C08091E2
:10037000B0008F7D8093B000F0E0EE0FFF1FEE58CD
:10038000FF4FA591B4918FB7F894EC91611103C020
:1003900020952E2301C02E2B2C938FBF0895CF9331
:1003A000DF9390E0FC01E255FF4F2491FC01E656FB
:1003B000FF4F8491882361F190E0880F991FFC0121
:1003C000E859FF4FC591D491FC01EE58FF4FA5911C
:1003D000B491611109C09FB7F89488812095822358
:1003E0008883EC912E230BC0623061F49FB7F894A0
:1003F0003881822F809583238883EC912E2B2C9338
:100400009FBF06C08FB7F894E8812E2B28838FBF3B
:10041000DF91CF9108953FB7F89480915901909161
:100420005A01A0915B01B0915C0126B5A89B05C063
:100430002F3F19F00196A11DB11D3FBFBA2FA92F63
:10044000982F8827820F911DA11DB11DBC01CD01E0
:1004500042E0660F771F881F991F4A95D1F70895CC
:100460008F929F92AF92BF92CF92DF92EF92FF92C4
:100470006B017C010E940B024B015C01C114D10491
:10048000E104F104F1F00E940B02DC01CB018819B8
:100490009909AA09BB09883E9340A105B10570F3EB
:1004A00021E0C21AD108E108F10888EE880E83E045
:1004B000981EA11CB11CC114D104E104F10419F768
:1004C000DDCFFF90EF90DF90CF90BF90AF909F90E7
:1004D0008F900895CF93DF93EC0160E08E810E94AE
:1004E000830161E08E810E94830160E08E810E9421
:1004F00083018BE891E00197F1F7DF91CF910895A7
:10050000CF92DF92EF92FF920F931F93CF93DF93DF
:100510007C016C0187E0C80ED11CC0E0D0E0062F42
:1005200010E0B8010C2E02C0759567950A94E2F7A9
:100530006170F60181916F010E9483012196C430A0
:10054000D10579F7C701DF91CF911F910F91FF90EE
:10055000EF90DF90CF900C946A02CF92DF92EF92EF
:10056000FF920F931F93CF93DF93EC01F62E642F2E
:100570008C810E9483018D818F3F19F060E00E9481
:1005800083018F850F2D10E084FF25C06E0187E069
:10059000C80ED11CE12CF12CB8010E2C02C07595AF
:1005A00067950A94E2F76170F60181916F010E94EC
:1005B0008301FFEFEF1AFF0A88E0E816F10461F704
:1005C000CE01DF91CF911F910F91FF90EF90DF90BF
:1005D000CF900C946A02B80184E0759567958A956E
:1005E000E1F7CE010E9480026F2DCE01DF91CF9105
:1005F0001F910F91FF90EF90DF90CF900C948002AD
:10060000EF92FF920F931F93CF93DF93EC01623031
:1006100018F08F8588608F876B8B1C8A80E48D8BA8
:1006200080E18E8B80E58F8B61E08C810E94CF0111
:100630008D818F3F19F061E00E94CF0161E08E81D2
:100640000E94CF017E0187E0E80EF11C00E010E07F
:100650008F8584FD03C084E090E002C088E090E0D4
:10066000081719074CF461E0F70181917F010E949E
:10067000CF010F5F1F4FECCF8BE39DE00197F1F7A8
:1006800060E08C810E94830160E08E810E94830182
:100690008D818F3F19F060E00E9483016F8564FDBA
:1006A0001DC063E0CE010E9480020BE416E4C80185
:1006B0000197F1F763E0CE010E948002C801019723
:1006C000F1F763E0CE010E94800283E592E001979A
:1006D000F1F762E0CE010E94800219C0606240E042
:1006E000CE010E94AD028BE496E40197F1F76F858D
:1006F000606240E0CE010E94AD0283E592E0019786
:10070000F1F76F85606240E0CE010E94AD026F8517
:10071000606240E0CE010E94AD0284E0888B40E040
:100720006CE0CE010E94AD0240E061E0CE010E948B
:10073000AD028BE39FE10197F1F782E0898B40E006
:1007400066E0CE01DF91CF911F910F91FF90EF9066
:100750000C94AD0241E00E94AD0281E090E008956A
:10076000009769F0FC0101900020E9F73197AF0193
:10077000481B590BBC0185E691E00C948C0080E08D
:1007800090E008958F929F92AF92BF92CF92DF92A6
:10079000EF92FF920F931F93CF93DF93CDB7DEB706
:1007A000A1970FB6F894DEBF0FBECDBF6C01990FB5
:1007B000EE08FF08F7FE31C0E0916501F091660197
:1007C0000190F081E02D6DE285E691E009958C01C4
:1007D00022273327A9012C193D094E095F0919A2C7
:1007E000CE0181967C019AE0892E912CA12CB12C0E
:1007F000CA01B901A50194010E940F08605DF701CB
:1008000062937F01211531054105510589F7CF011B
:100810000E94B003080F191F1EC0A701960119A25C
:100820008E010F5D1F4F8AE0C82ED12CE12CF12CD8
:10083000CA01B901A70196010E940F08605DF80185
:1008400062938F01211531054105510589F7CF01CB
:100850000E94B0038C0188E191E00E94B003800FF8
:10086000911FA1960FB6F894DEBF0FBECDBFDF91EA
:10087000CF911F910F91FF90EF90DF90CF90BF909D
:10088000AF909F908F9008950E9437081F920F920B
:100890000FB60F9211242F933F934F935F936F9353
:1008A0007F938F939F93AF93BF93EF93FF9385E6CF
:1008B00091E00E94EF00FF91EF91BF91AF919F9166
:1008C0008F917F916F915F914F913F912F910F90F9
:1008D0000FBE0F901F9018951F920F920FB60F9298
:1008E00011242F938F939F93EF93FF93E0917501C2
:1008F000F09176018081E0917B01F0917C0182FD95
:1009000012C0908180917E018F5F8F7320917F0153
:10091000821751F0E0917E01F0E0EB59FE4F958F88
:1009200080937E0101C08081FF91EF919F918F9113
:100930002F910F900FBE0F901F9018951F920F923E
:100940000FB60F9211242F933F938F939F93AF93E2
:10095000BF938091550190915601A0915701B0919C
:1009600058013091540123E0230F2D3720F40196D4
:10097000A11DB11D05C026E8230F0296A11DB11DC2
:10098000209354018093550190935601A0935701F1
:10099000B09358018091590190915A01A0915B0147
:1009A000B0915C010196A11DB11D809359019093F6
:1009B0005A01A0935B01B0935C01BF91AF919F91ED
:1009C0008F913F912F910F900FBE0F901F90189510
:1009D000CF92DF92EF92FF920F931F93E82FF92FA0
:1009E00005C0015011092109310961F19081962357
:1009F0009417B9F305C0015011092109310911F10A
:100A0000908196239413F7CFC12CD12CE12CF12C9B
:100A10000AC08FEFC81AD80AE80AF80A0C151D0593
:100A20002E053F0579F080818623841791F36C2D84
:100A30007D2D8E2D9F2D1F910F91FF90EF90DF90B8
:100A4000CF90089560E070E080E090E01F910F91FA
:100A5000FF90EF90DF90CF900895E5E6F1E01382EC
:100A6000128288EE93E0A0E0B0E084839583A683B1
:100A7000B78384E091E09183808385EC90E0958753
:100A8000848784EC90E09787868780EC90E0918B58
:100A9000808B81EC90E0938B828B82EC90E0958B45
:100AA000848B86EC90E0978B868B118E128E138E42
:100AB000148EE2E0F2E01382128284E191E09183ED
:100AC00080838CE084838FEF85838BE0868387E04F
:100AD000878386E0808785E0818784E0828713862C
:100AE000148615861686178661E0CF010C940003E4
:100AF000789484B5826084BD84B5816084BD85B5F9
:100B0000826085BD85B5816085BD80916E00816004
:100B100080936E00109281008091810082608093AA
:100B200081008091810081608093810080918000AC
:100B30008160809380008091B10084608093B100D7
:100B40008091B00081608093B00080917A008460D1
:100B500080937A0080917A00826080937A008091FD
:100B60007A00816080937A0080917A008068809317
:100B70007A001092C100E0917501F091760182E057
:100B80008083E0917101F09172011082E091730114
:100B9000F09174018FEC808310927D01E0917901D6
:100BA000F0917A0186E08083E0917701F0917801FD
:100BB000808180618083E0917701F091780180816C
:100BC00088608083E0917701F0917801808180686E
:100BD0008083E0917701F091780180818F7D80831F
:100BE00062E082E092E00E94000361E083E00E9404
:100BF000CF0160E082E00E94CF0161E088E00E94C6
:100C0000CF0161E089E00E94CF01C3E0D0E093E230
:100C1000E92EF12C20EBC22E20E0D22E3CE9A32EAF
:100C200030E0B32E60E083E00E948301CE010197A3
:100C3000F1F761E083E00E948301C7010197F1F7BA
:100C400060E083E00E948301F6016491F501249144
:100C500030E0220F331F20573F4FF90185919491C7
:100C600000E412E42FE030E0462F0E94E804611512
:100C700071058105910549F0DC01CB010196A11DAB
:100C8000B11DBC01CD019F7003C060E070E0CB01DD
:100C9000609361017093620180936301909364019A
:100CA0000E9416072B013C0126E933E44BE05DE38B
:100CB0000E947A0720E030E040E05FE30E947A077C
:100CC0000E94DE068B017093600160935F012EE34A
:100CD00038EE49E55CE3C301B2010E947A0720E0E7
:100CE00030E040E05FE30E947A070E94DE067093E6
:100CF0005E0160935D010832110524F160E089E036
:100D00000E94830161E088E00E9483018BE191E011
:100D10000E94B00388E191E00E94B00364E670E0B5
:100D200080E090E00E94300260E089E00E94830150
:100D300060E088E00E94830164E670E080E090E07B
:100D40000E94300280915F01909160018A3191058B
:100D50003CF460E089E00E94830161E088E009C022
:100D60004A970F9740F560E088E00E94830161E0B8
:100D700089E00E94830185E391E00E94B0038091A5
:100D80005F01909160010E94C20364E170E080E025
:100D900090E00E94300283E491E00E94B0038091D1
:100DA0005D0190915E010E94C20364E170E080E009
:100DB00090E00E9430020E94790134CF0E94E50643
:100DC0006894B1110C94740708950E94590788F033
:100DD0009F5798F0B92F9927B751B0F0E1F0660FFF
:100DE000771F881F991F1AF0BA95C9F714C0B13040
:100DF00091F00E947307B1E008950C947307672F78
:100E0000782F8827B85F39F0B93FCCF3869577956E
:100E10006795B395D9F73EF4909580957095619557
:100E20007F4F8F4F9F4F0895E89409C097FB3EF482
:100E300090958095709561957F4F8F4F9F4F992327
:100E4000A9F0F92F96E9BB279395F69587957795A5
:100E50006795B795F111F8CFFAF4BB0F11F460FF65
:100E60001BC06F5F7F4F8F4F9F4F16C0882311F0BD
:100E700096E911C0772321F09EE8872F762F05C0D1
:100E8000662371F096E8862F70E060E02AF09A956C
:100E9000660F771F881FDAF7880F9695879597F961
:100EA000089557FD9058440F551F59F05F3F71F05A
:100EB0004795880F97FB991F61F09F3F79F08795C1
:100EC0000895121613061406551FF2CF4695F1DF4A
:100ED00008C0161617061806991FF1CF86957105DA
:100EE000610508940895E894BB2766277727CB010E
:100EF00097F908950E948D070C94FE070E94F00751
:100F000038F00E94F70720F0952311F00C94E707C2
:100F10000C94ED0711240C9474070E94510770F390
:100F2000959FC1F3950F50E0551F629FF001729F8E
:100F3000BB27F00DB11D639FAA27F00DB11DAA1F9D
:100F4000649F6627B00DA11D661F829F2227B00DEA
:100F5000A11D621F739FB00DA11D621F839FA00D75
:100F6000611D221F749F3327A00D611D231F849FC5
:100F7000600D211D822F762F6A2F11249F5750401C
:100F80009AF0F1F088234AF0EE0FFF1FBB1F661F97
:100F9000771F881F91505040A9F79E3F510580F060
:100FA0000C94E7070C9474075F3FE4F3983ED4F386
:100FB000869577956795B795F795E7959F5FC1F704
:100FC000FE2B880F911D9695879597F9089597F9AF
:100FD0009F6780E870E060E008959FEF80EC0895DF
:100FE00000240A9416161706180609060895002408
:100FF0000A9412161306140605060895092E039482
:10100000000C11F4882352F0BB0F40F4BF2B11F4F5
:1010100060FF04C06F5F7F4F8F4F9F4F0895A1E225
:101020001A2EAA1BBB1BFD010DC0AA1FBB1FEE1F62
:10103000FF1FA217B307E407F50720F0A21BB30BAD
:10104000E40BF50B661F771F881F991F1A9469F729
:1010500060957095809590959B01AC01BD01CF0185
:101060000895EE0FFF1F0590F491E02D099481E0A3
:0C10700090E0F8940C943C08F894FFCF3A
:10107C000000000010018C00D900B700CB00570114
:10108C0000000000AA038C000D0A004C696D697405
:10109C006520646F2053656E736F722045786365AD
:1010AC006469646F0044697374616E636961434D74
:1010BC003A200044697374616E636961496E6368B8
:0410CC003A200000C6
:107E0000112484B714BE81FFF0D085E080938100F7
:107E100082E08093C00088E18093C10086E0809377
:107E2000C20080E18093C4008EE0C9D0259A86E02C
:107E300020E33CEF91E0309385002093840096BBD3
:107E4000B09BFECF1D9AA8958150A9F7CC24DD24C4
:107E500088248394B5E0AB2EA1E19A2EF3E0BF2EE7
:107E6000A2D0813461F49FD0082FAFD0023811F036
:107E7000013811F484E001C083E08DD089C08234E0
:107E800011F484E103C0853419F485E0A6D080C0E4
:107E9000853579F488D0E82EFF2485D0082F10E0AE
:107EA000102F00270E291F29000F111F8ED06801E7
:107EB0006FC0863521F484E090D080E0DECF843638
:107EC00009F040C070D06FD0082F6DD080E0C81688
:107ED00080E7D80618F4F601B7BEE895C0E0D1E017
:107EE00062D089930C17E1F7F0E0CF16F0E7DF06D8
:107EF00018F0F601B7BEE89568D007B600FCFDCFD4
:107F0000A601A0E0B1E02C9130E011968C91119780
:107F100090E0982F8827822B932B1296FA010C0160
:107F200087BEE89511244E5F5F4FF1E0A038BF0790
:107F300051F7F601A7BEE89507B600FCFDCF97BE46
:107F4000E89526C08437B1F42ED02DD0F82E2BD052
:107F50003CD0F601EF2C8F010F5F1F4F84911BD097
:107F6000EA94F801C1F70894C11CD11CFA94CF0C13
:107F7000D11C0EC0853739F428D08EE10CD085E9AC
:107F80000AD08FE07ACF813511F488E018D01DD067
:107F900080E101D065CF982F8091C00085FFFCCF94
:107FA0009093C60008958091C00087FFFCCF809118
:107FB000C00084FD01C0A8958091C6000895E0E648
:107FC000F0E098E1908380830895EDDF803219F02E
:107FD00088E0F5DFFFCF84E1DECF1F93182FE3DFCA
:107FE0001150E9F7F2DF1F91089580E0E8DFEE27F6
:047FF000FF270994CA
:027FFE00040479
:0400000300007E007B
:00000001FF
