:100000000C9462000C948A000C948A000C948A0070
:100010000C948A000C948A000C948A000C948A0038
:100020000C948A000C948A000C948A000C948A0028
:100030000C948A000C948A000C948A000C948A0018
:100040000C94A8040C948A000C9476040C9450042C
:100050000C948A000C948A000C948A000C948A00F8
:100060000C948A000C948A000000000024002700F1
:100070002A0000000000250028002B0000000008D6
:10008000000201000003040700000000000000005F
:1000900000000000230026002900040404040404D6
:1000A0000404020202020202030303030303010227
:1000B00004081020408001020408102001020408F6
:1000C0001020370511241FBECFEFD8E0DEBFCDBF13
:1000D00011E0A0E0B1E0EAEDF0E102C005900D9280
:1000E000A836B107D9F722E0A8E6B1E001C01D9219
:1000F000AE32B207E1F710E0C2E6D0E004C02197CB
:10010000FE010E946008C136D107C9F70E9482052E
:100110000C946B080C940000CF92DF92EF92FF9248
:100120000F931F93CF93DF936C017A018B01C0E093
:10013000D0E0CE15DF0589F0D8016D918D01D60193
:10014000ED91FC910190F081E02DC6010995892B7C
:1001500011F47E0102C02196ECCFC701DF91CF914F
:100160001F910F91FF90EF90DF90CF900895FC01C9
:10017000918D828D981761F0828DDF01A80FB11DDE
:100180005D968C91928D9F5F9F73928F90E0089502
:100190008FEF9FEF0895FC01918D828D981731F0BC
:1001A000828DE80FF11D858D90E008958FEF9FEF10
:1001B0000895FC01918D228D892F90E0805C9F4FE6
:1001C000821B91098F739927089589E791E00E9416
:1001D000D90021E0892B09F420E0822F0895FC0149
:1001E000848DDF01A80FB11DA35ABF4F2C91848DC0
:1001F00090E001968F739927848FA689B7892C93F5
:10020000A089B1898C9180648C93938D848D98138F
:1002100006C00288F389E02D80818F7D8083089558
:10022000EF92FF920F931F93CF93DF93EC0181E046
:10023000888F9B8D8C8D981305C0E889F989808102
:1002400085FD24C0F62E0B8D10E00F5F1F4F0F733E
:100250001127E02E8C8DE8120CC00FB607FCFACFE8
:10026000E889F989808185FFF5CFCE010E94EF00F2
:10027000F1CF8B8DFE01E80FF11DE35AFF4FF082A5
:100280000B8FEA89FB898081806207C0EE89FF8934
:100290006083E889F98980818064808381E090E0CF
:1002A000DF91CF911F910F91FF90EF900895CF9321
:1002B000DF93EC01888D8823C9F0EA89FB8980816E
:1002C00085FD05C0A889B9898C9186FD0FC00FB640
:1002D00007FCF5CF808185FFF2CFA889B9898C9181
:1002E00085FFEDCFCE010E94EF00E7CFDF91CF91E8
:1002F000089580E090E0892B29F00E94E5008111AB
:100300000C940000089590E0FC01E458FF4F3491F4
:10031000FC01E255FF4F2491FC01E656FF4FE491AA
:10032000EE2309F43BC0332339F1333091F038F434
:100330003130A9F0323001F584B58F7D12C03730ED
:1003400091F03830A1F03430B9F4809180008F7D85
:1003500003C0809180008F77809380000DC084B5AA
:100360008F7784BD09C08091B0008F7703C08091E2
:10037000B0008F7D8093B000F0E0EE0FFF1FEE58CD
:10038000FF4FA591B4918FB7F894EC91611103C020
:1003900020952E2301C02E2B2C938FBF0895CF9331
:1003A000DF9390E0FC01E255FF4F2491FC01E656FB
:1003B000FF4F8491882361F190E0880F991FFC0121
:1003C000E859FF4FC591D491FC01EE58FF4FA5911C
:1003D000B491611109C09FB7F89488812095822358
:1003E0008883EC912E230BC0623061F49FB7F894A0
:1003F0003881822F809583238883EC912E2B2C9338
:100400009FBF06C08FB7F894E8812E2B28838FBF3B
:10041000DF91CF9108953FB7F89480916D0190914D
:100420006E01A0916F01B091700126B5A89B05C027
:100430002F3F19F00196A11DB11D3FBFBA2FA92F63
:10044000982F8827820F911DA11DB11DBC01CD01E0
:1004500042E0660F771F881F991F4A95D1F70895CC
:100460008F929F92AF92BF92CF92DF92EF92FF92C4
:100470006B017C010E940B024B015C01C114D10491
:10048000E104F104F1F00E940B02DC01CB018819B8
:100490009909AA09BB09883E9340A105B10570F3EB
:1004A00021E0C21AD108E108F10888EE880E83E045
:1004B000981EA11CB11CC114D104E104F10419F768
:1004C000DDCFFF90EF90DF90CF90BF90AF909F90E7
:1004D0008F900895CF93DF93EC0160E08E810E94AE
:1004E000830161E08E810E94830160E08E810E9421
:1004F00083018BE891E00197F1F7DF91CF910895A7
:10050000CF92DF92EF92FF920F931F93CF93DF93DF
:100510007C016C0187E0C80ED11CC0E0D0E0062F42
:1005200010E0B8010C2E02C0759567950A94E2F7A9
:100530006170F60181916F010E9483012196C430A0
:10054000D10579F7C701DF91CF911F910F91FF90EE
:10055000EF90DF90CF900C946A02CF92DF92EF92EF
:10056000FF920F931F93CF93DF93EC01F62E642F2E
:100570008C810E9483018D818F3F19F060E00E9481
:1005800083018F850F2D10E084FF25C06E0187E069
:10059000C80ED11CE12CF12CB8010E2C02C07595AF
:1005A00067950A94E2F76170F60181916F010E94EC
:1005B0008301FFEFEF1AFF0A88E0E816F10461F704
:1005C000CE01DF91CF911F910F91FF90EF90DF90BF
:1005D000CF900C946A02B80184E0759567958A956E
:1005E000E1F7CE010E9480026F2DCE01DF91CF9105
:1005F0001F910F91FF90EF90DF90CF900C948002AD
:1006000041E00E94AD0281E090E0089540E00C944A
:10061000AD02EF92FF920F931F93CF93DF93EC0104
:10062000623018F08F8588608F876B8B1C8A80E41E
:100630008D8B80E18E8B80E58F8B61E08C810E94B9
:10064000CF018D818F3F19F061E00E94CF0161E001
:100650008E810E94CF017E0187E0E80EF11C00E050
:1006600010E08F8584FD03C084E090E002C088E044
:1006700090E0081719074CF461E0F70181917F01C0
:100680000E94CF010F5F1F4FECCF8BE39DE00197DE
:10069000F1F760E08C810E94830160E08E810E940E
:1006A00083018D818F3F19F060E00E9483016F8587
:1006B00064FD1DC063E0CE010E9480020BE416E4DD
:1006C000C8010197F1F763E0CE010E948002C801E2
:1006D0000197F1F763E0CE010E94800283E592E08A
:1006E0000197F1F762E0CE010E94800216C06062BD
:1006F000CE010E9406038BE496E40197F1F76F8523
:100700006062CE010E94060383E592E00197F1F753
:100710006F856062CE010E9406036F856062CE0124
:100720000E94060384E0888B6CE0CE010E940603E1
:1007300061E0CE010E9406038BE39FE10197F1F790
:1007400082E0898B66E0CE01DF91CF911F910F91FE
:10075000FF90EF900C940603843008F083E09091B2
:100760002902891710F08FEF890FE82FF0E0EA5E79
:10077000FD4F6489606886E192E00C94060300975F
:1007800069F0FC0101900020E9F73197AF01481BA7
:10079000590BBC0186E192E00C948C0080E090E063
:1007A00008950C94BF038F929F92AF92BF92CF9205
:1007B000DF92EF92FF920F931F93CF93DF93CDB70A
:1007C000DEB7A1970FB6F894DEBF0FBECDBF6C01A8
:1007D000990FEE08FF08F7FE31C0E0911602F09184
:1007E00017020190F081E02D6DE286E192E009951B
:1007F0008C0122273327A9012C193D094E095F09D5
:1008000019A2CE0181967C019AE0892E912CA12C0F
:10081000B12CCA01B901A50194010E943E08605D96
:10082000F70162937F01211531054105510589F7D3
:10083000CF010E94BF03800F911F1DC0A701960129
:1008400019A28E010F5D1F4F8AE0C82ED12CE12C1A
:10085000F12CCA01B901A70196010E943E08605D12
:10086000F80162938F01211531054105510589F782
:10087000CF010E94BF03A1960FB6F894DEBF0FBE52
:10088000CDBFDF91CF911F910F91FF90EF90DF903F
:10089000CF90BF90AF909F908F9008950E94660870
:1008A0001F920F920FB60F9211242F933F934F93E5
:1008B0005F936F937F938F939F93AF93BF93EF93C8
:1008C000FF9389E791E00E94EF00FF91EF91BF91C4
:1008D000AF919F918F917F916F915F914F913F91D8
:1008E0002F910F900FBE0F901F9018951F920F928F
:1008F0000FB60F9211242F938F939F93EF93FF9333
:10090000E0918901F0918A018081E0918F01F0915D
:10091000900182FD12C09081809192018F5F8F7350
:1009200020919301821751F0E0919201F0E0E75895
:10093000FE4F958F8093920101C08081FF91EF91CE
:100940009F918F912F910F900FBE0F901F90189530
:100950001F920F920FB60F9211242F933F938F93F4
:100960009F93AF93BF938091690190916A01A09189
:100970006B01B0916C013091680123E0230F2D379A
:1009800020F40196A11DB11D05C026E8230F029693
:10099000A11DB11D209368018093690190936A01A4
:1009A000A0936B01B0936C0180916D0190916E01E9
:1009B000A0916F01B09170010196A11DB11D8093AE
:1009C0006D0190936E01A0936F01B0937001BF9180
:1009D000AF919F918F913F912F910F900FBE0F90EC
:1009E0001F901895CF92DF92EF92FF920F931F9373
:1009F000E82FF92F05C0015011092109310961F1D2
:100A0000908196239417B9F305C00150110921096B
:100A1000310911F1908196239413F7CFC12CD12C79
:100A2000E12CF12C0AC08FEFC81AD80AE80AF80A9C
:100A30000C151D052E053F0579F08081862384174E
:100A400091F36C2D7D2D8E2D9F2D1F910F91FF9079
:100A5000EF90DF90CF90089560E070E080E090E04C
:100A60001F910F91FF90EF90DF90CF900895E9E7ED
:100A7000F1E01382128288EE93E0A0E0B0E084837C
:100A80009583A683B78384E091E09183808385EC8E
:100A900090E09587848784EC90E09787868780EC48
:100AA00090E0918B808B81EC90E0938B828B82EC39
:100AB00090E0958B848B86EC90E0978B868B118EE3
:100AC000128E138E148EE6E1F2E01382128284E11C
:100AD00091E0918380838CE084838FEF85838BE02A
:100AE000868387E0878386E0808785E0818784E04E
:100AF00082871386148615861686178661E0CF01D5
:100B00000C940903789484B5826084BD84B58160B7
:100B100084BD85B5826085BD85B5816085BD8091C8
:100B20006E00816080936E00109281008091810040
:100B30008260809381008091810081608093810038
:100B4000809180008160809380008091B1008460FA
:100B50008093B1008091B00081608093B00080915B
:100B60007A00846080937A0080917A00826080931A
:100B70007A0080917A00816080937A0080917A0077
:100B8000806880937A001092C100E0918901F09111
:100B90008A0182E08083E0918501F09186011082D4
:100BA000E0918701F09188018FEC80831092910190
:100BB000E0918D01F0918E0186E08083E0918B01C0
:100BC000F0918C01808180618083E0918B01F091B4
:100BD0008C01808188608083E0918B01F0918C0191
:100BE000808180688083E0918B01F0918C0180810D
:100BF0008F7D808362E086E192E00E94090361E0DC
:100C000083E00E94CF0160E082E00E94CF0161E0BA
:100C100088E00E94CF0161E089E00E94CF01C3E03B
:100C2000D0E093E2E92EF12C20EBC22E20E0D22E70
:100C30003CE9A32E30E0B32E60E083E00E94830104
:100C4000CE010197F1F761E083E00E948301C701C3
:100C50000197F1F760E083E00E948301F60164915F
:100C6000F501249130E0220F331F20573F4FF90147
:100C70008591949100E412E42FE030E0462F0E9429
:100C8000F204611571058105910549F0DC01CB0184
:100C90000196A11DB11DBC01CD019F7003C060E094
:100CA00070E0CB01609375017093760180937701BA
:100CB000909378010E9445072B013C0126E933E41B
:100CC0004BE05DE30E94A90720E030E040E05FE3F5
:100CD0000E94A9070E940D078B0170937401609315
:100CE00073012EE338EE49E55CE3C301B2010E94D3
:100CF000A90720E030E040E05FE30E94A9070E94DE
:100D00000D07709372016093710100391140C4F1B5
:100D100060E089E00E94830161E088E00E94830135
:100D200080E00E94AC0388E191E00E94D10381E061
:100D30000E94AC0389E291E00E94D10364E670E076
:100D400080E090E00E94300260E089E00E94830130
:100D500060E088E00E94830180E00E94AC038AE3A7
:100D600091E00E94D10381E00E94AC038AE391E00C
:100D70000E94D10364E670E080E090E00E943002BF
:100D80008091730190917401853021E092073CF4C9
:100D900060E089E00E94830161E088E00BC085503B
:100DA00091408B389105B0F560E088E00E948301A6
:100DB00061E089E00E94830180E00E94AC038BE443
:100DC00091E00E94D10380917301909174010E947F
:100DD000D30386E591E00E94D10364E170E080E0F6
:100DE00090E00E94300281E00E94AC038BE491E02D
:100DF0000E94D10380917101909172010E94D303EE
:100E00008EE591E00E94D10364E170E080E090E023
:100E10000E9430020E9479010FCF0E94140768944B
:100E2000B1110C94A30708950E94880788F09F577A
:100E300098F0B92F9927B751B0F0E1F0660F771FFE
:100E4000881F991F1AF0BA95C9F714C0B13091F0F4
:100E50000E94A207B1E008950C94A207672F782F93
:100E60008827B85F39F0B93FCCF3869577956795B9
:100E7000B395D9F73EF490958095709561957F4F25
:100E80008F4F9F4F0895E89409C097FB3EF49095CB
:100E90008095709561957F4F8F4F9F4F9923A9F053
:100EA000F92F96E9BB279395F695879577956795E2
:100EB000B795F111F8CFFAF4BB0F11F460FF1BC026
:100EC0006F5F7F4F8F4F9F4F16C0882311F096E9B9
:100ED00011C0772321F09EE8872F762F05C0662367
:100EE00071F096E8862F70E060E02AF09A95660F20
:100EF000771F881FDAF7880F9695879597F90895D9
:100F000057FD9058440F551F59F05F3F71F04795BA
:100F1000880F97FB991F61F09F3F79F0879508959F
:100F2000121613061406551FF2CF4695F1DF08C0BE
:100F3000161617061806991FF1CF869571056105DB
:100F400008940895E894BB2766277727CB0197F983
:100F500008950E94BC070C942D080E941F0838F0C9
:100F60000E94260820F0952311F00C9416080C948A
:100F70001C0811240C94A3070E94800770F3959F0E
:100F8000C1F3950F50E0551F629FF001729FBB2780
:100F9000F00DB11D639FAA27F00DB11DAA1F649F1C
:100FA0006627B00DA11D661F829F2227B00DA11DCF
:100FB000621F739FB00DA11D621F839FA00D611D55
:100FC000221F749F3327A00D611D231F849F600D76
:100FD000211D822F762F6A2F11249F5750409AF09F
:100FE000F1F088234AF0EE0FFF1FBB1F661F771F2B
:100FF000881F91505040A9F79E3F510580F00C94F6
:1010000016080C94A3075F3FE4F3983ED4F386954B
:1010100077956795B795F795E7959F5FC1F7FE2B95
:10102000880F911D9695879597F9089597F99F6771
:1010300080E870E060E008959FEF80EC0895002460
:101040000A941616170618060906089500240A942D
:1010500012161306140605060895092E0394000CB3
:1010600011F4882352F0BB0F40F4BF2B11F460FF42
:1010700004C06F5F7F4F8F4F9F4F0895A1E21A2EDC
:10108000AA1BBB1BFD010DC0AA1FBB1FEE1FFF1F2C
:10109000A217B307E407F50720F0A21BB30BE40B7C
:1010A000F50B661F771F881F991F1A9469F76095C3
:1010B0007095809590959B01AC01BD01CF0108957D
:1010C000EE0FFF1F0590F491E02D099481E090E070
:0A10D000F8940C946B08F894FFCF1D
:1010DA000000000010018C00D900B700CB005701B6
:1010EA000000000000038C004C696D69746520647F
:1010FA006F2053656E736F72002020204573746FE2
:10110A00757261646F202120200020202020202079
:10111A002020202020202020202000446973746190
:10112A006E63653D200020636D2020202000206929
:08113A006E63682020202000F4
:00000001FF
